:020000040800F2
:100000006835002039020008410200084302000858
:1000100045020008470200084902000800000000ED
:10002000000000000000000000000000A101000826
:100030004D02000800000000E50100085121000801
:10004000530200085302000853020008530200083C
:10005000530200085302000853020008530200082C
:10006000530200085302000853020008530200081C
:10007000530200085302000853020008530200080C
:1000800053020008530200085302000853020008FC
:1000900053020008530200085302000853020008EC
:1000A00053020008530200085302000853020008DC
:1000B00053020008530200085302000853020008CC
:1000C00053020008530200085302000853020008BC
:1000D00053020008530200085302000853020008AC
:1000E00053020008530200085302000800F002F80F
:1000F00000F047F80AA090E8000C82448344AAF17B
:100100000107DA4501D100F03CF8AFF2090EBAE878
:100110000F0013F0010F18BFFB1A43F0010318473B
:100120004C2900006C290000103A24BF78C878C11F
:10013000FAD8520724BF30C830C144BF04680C60ED
:10014000704700000023002400250026103A28BF35
:1001500078C1FBD8520728BF30C148BF0B60704739
:10016000702900F0BD80002070471FB59DE8030096
:1001700000F01CFD00F00EFB1FBD10B500F073FB7E
:1001800010BD00F0D6FB1146FFF7EFFF01F032FB88
:1001900000F0DAFC03B4FFF7F0FF03BC00F078FED8
:1001A000224B19680868B0E8F00F80F30988BFF3A4
:1001B0006F8F4FF0000080F311884EF00D0E7047E6
:1001C0000000000006480068006880F3088862B6F6
:1001D00061B6BFF34F8FBFF36F8F00DF00BF00BF6B
:1001E00008ED00E0EFF30980BFF36F8F0F4B1A6843
:1001F00020E9F00F106008B54FF0BF0080F31188C0
:10020000BFF34F8FBFF36F8F01F058FF4FF0000027
:1002100080F31188BDE8084019680868B0E8F00F5D
:1002200080F30988BFF36F8F704700BF180000206C
:10023000EFF30580704700000948804709480047F0
:10024000FEE7FEE7FEE7FEE7FEE7FEE7FEE7FEE786
:10025000FEE7FEE704480549054A064B70470000E3
:10026000E9130008ED000008682D00206835002023
:1002700068310020683100200FB4044910B503AA8A
:10028000029800F027FA10BC5DF814FB602C0020E7
:1002900070B5044685690068C10601D5302600E0C6
:1002A0002026C00707D070BDD4E901213046904711
:1002B000206A401C20626D1EF6D570BD70B50446E4
:1002C00085690078C00707D170BDD4E901212020DD
:1002D0009047206A401C20626D1EF6D570BD00005C
:1002E000F0B4136802680824C4610C4642F020028E
:1002F0000260110502D50E4A7A4402E00C4A7A44A3
:100300000E32002100F1240505E003F00F061B0961
:10031000965D6E54491C002BF7D105782D0703D547
:10032000702C01D101231032F0BC00F079B900002B
:10033000282700002DE9F05F894604464FF0000AA7
:10034000DFF874B1FB44C0F820A02046E16888477C
:10035000002874D0252806D0D4E901219047206ACE
:10036000401C2062F1E700265F462046E16888478E
:100370002028054607DB312D05D2781910F8200C0E
:1003800008B10643F1E7B00701D526F00406C4F82A
:100390001CA00027C4F818A02A2D09D0284601F077
:1003A0000AFA38B304EB8708303DC8F8185019E052
:1003B00059F8041B204604EB87029161E1688847E5
:1003C000012F054618D1E069002820DA26F0200622
:1003D0001DE0D8F8180000EB800005EB4000303835
:1003E000C8F818002046E1688847054601F0E3F99F
:1003F0000028EED1012F0AD02E2D08D12046E16829
:1004000088477F1C0546022F46F02006C4DBA06902
:10041000002803DA404246F00106A061F00701D04F
:1004200026F010066C2D0BD0682D09D04C2D39D03C
:100430006A2D35D0742D35D07A2D33D016E038E0C2
:10044000E1682F4620468847B842054609D16C2FFF
:1004500026D04FF48060E168064320468847054671
:1004600004E06C2F1AD04FF4807006430DB3A5F151
:100470004100192802D8203546F400664A4629462C
:10048000204626604E46FFF76BFE80B101280BD058
:10049000F61D26F0070000F1080956E74020E4E7C2
:1004A0008020D8E70020D6E706F104094DE728466A
:1004B00052E7206ABDE8F09F0427000040EA0103EC
:1004C000024630B59B0710D14FF0013400E008C25E
:1004D00008C91D1B9D4315EAC41FF8D013F0FF0186
:1004E00002F8011B0DD01B0AF8E711F8013B002BA5
:1004F00002F8013B05D011F8013B002B02F8013B4B
:10050000F3D130BD10B5431C02E010F8011B71B1EE
:100510008107FAD14FF0013202C88C1A8C4314EAD9
:10052000C211F9D0C01A0A0603D0C01E10BDC01AED
:1005300010BD0A0401D0801E10BD0902FCD0401E6F
:1005400010BD032A40F2308010F0030C00F015803B
:1005500011F8013BBCF1020F624498BF11F801CBC6
:1005600000F8013B38BF11F8013BA2F1040298BF2B
:1005700000F801CB38BF00F8013B11F0030300F095
:10058000BB80083AC0F0088051F8043B083A51F8A3
:1005900004CBA0E80810F5E7121D5CBF51F8043B3E
:1005A00040F8043BAFF30080D20724BF11F8013BB1
:1005B00011F801CB48BF11F8012B24BF00F8013B13
:1005C00000F801CB48BF00F8012B70474FF0000244
:1005D00000B5134694469646203922BFA0E80C5039
:1005E000A0E80C50B1F12001BFF4F7AF090728BF14
:1005F000A0E80C5048BF0CC05DF804EB890028BF90
:1006000040F8042B08BF704748BF20F8022B11F0B8
:10061000804F18BF00F8012B704770477047704734
:100620002DE9F0470D4699469246044600F124080C
:100630000168880604D5E06921F01001216000E01E
:100640000120A84201DD471B00E00027A1697A19BB
:1006500002EB0900081AA0612078C00602D42046E7
:10066000FFF716FE002608E0D4E901211AF806007B
:100670009047206A401C761C20624E45F4DB2078AF
:10068000C0060AD52046FFF703FE06E0D4E90121A3
:1006900030209047206A401C2062381EA7F10107D5
:1006A000F4DC07E0D4E9012118F805009047206A3E
:1006B000401C2062281EA5F10105F3DC2046FFF74F
:1006C000FDFD2078000602D50220BDE8F08701205C
:1006D000FBE70000074B70B50D467B4400F043F884
:1006E0000446284600F052F810B14FF0FF3070BDBC
:1006F000204670BDE710000010B5203AC0F00B8016
:10070000B1E81850203AA0E81850B1E81850A0E815
:100710001850BFF4F5AF5FEA027C24BFB1E818506F
:10072000A0E8185044BF18C918C0BDE810405FEADF
:10073000827C24BF51F8043B40F8043B08BF70475B
:10074000D20728BF31F8023B48BF11F8012B28BF60
:1007500020F8023B48BF00F8012B704701694A1C92
:1007600002610878704700B58FB0CDE901310021F2
:10077000059105497944CDE9031011466846FFF714
:10078000D9FD0FB000BD0000E5FFFFFF007B00F0CA
:100790008000704710B542485421FFF717FF4148C9
:1007A0005421FFF713FF40485421FFF70FFF3F4943
:1007B0003B483C4A3F4B08603D490A603A49196052
:1007C000531C0365481C1065012008653B48344AEA
:1007D00039A1784400F01CF920B9384878440A3827
:1007E00000F0BBF937482F4A35A1784400F010F9E2
:1007F00020B9344878440A3800F0AFF932482A4A20
:100800002FA1784400F004F920B92F4878440A3821
:1008100000F0A3F940232248DC000021224600F02A
:10082000D4F820B125487844543800F096F91D4892
:1008300022464023002100F0C8F820B12148784426
:10084000543800F08AF9184822461023002100F09D
:10085000BCF8002806D01C487844BDE81040563843
:1008600000F07BB910BD104870B5006D20F0010498
:100870000B4800F043F90B4800F040F90A4800F03B
:100880003DF909E0206D20F00105204600F036F921
:10089000204600F073F82C46002CF3D170BD000008
:1008A0000C2C0020602C0020B42C00206C000020B8
:1008B00070000020740000207200000087220000F9
:1008C00077000000732200005F2200000EB5CDE922
:1008D0000001FFF717FE029069460120ABBE0EBD76
:1008E00008B5694600900220ABBE08BD1FB58DE873
:1008F000070069460520ABBE04B010BD1FB58DE8EA
:100900000F0069460620ABBEF6E708B569460090C1
:100910000920ABBE08BD1CB5CDE9000169460A201F
:10092000ABBE1CBD704708B5694600900C20ABBE3D
:1009300008BD754600F018F9AE46050069465346F5
:1009400020F00700854618B020B5FFF783FCBDE80E
:1009500020404FF000064FF000074FF000084FF026
:10096000000B21F00701AC46ACE8C009ACE8C009B7
:10097000ACE8C009ACE8C0098D46704770B50446C4
:10098000051F00F0F7F80068002C14BF446870BD24
:10099000002C18BFAC423CBF20466468F8D3016805
:1009A0000A18AA4218BF456003D12A6805461144B7
:1009B000016028684119A1421CBF6C6070BD61686C
:1009C000696021680844286070BD70B5C468A507D7
:1009D00013D0650211D4B2F5807F09D0B2F5007F43
:1009E00006D0B2F5806F08D1012300F1240106E0A2
:1009F0005D1E6FF07F46B54201D3012070BD0161DD
:100A0000C361416024F470611143C160002070BD76
:100A10002DE9F0410C4607461646104600F06EF8E8
:100A20002078611C61280AD0722802D077283CD136
:100A300002E00125002405E00225042402E0082448
:100A400048F2020511F8010B2B2806D0622809D0C4
:100A500011F8010C74280AD00BE045F0030544F0AE
:100A60000204EFE745F0040544F00104EAE744F02E
:100A7000100438462146FFF729FF411C15D00021FC
:100A8000316171604FF40071F560F16170612007B0
:100A900004D530460222002100F0E6F8306D40F027
:100AA000010030653046BDE8F0810020FBE72DE90C
:100AB000F0410D460646104C206DC10704D0410898
:100AC00004D020F00104F7E722460EE0542000F0A5
:100AD0009CF807000ED0206D47F001010843542117
:100AE00020653846FFF772FD3A4629463046BDE894
:100AF000F0418DE70020D6E70C2C00202DE9F047CF
:100B000004464FF000094FF0FF37C568D4E904866A
:100B1000A80707D0204600F057F93046FFF7E0FE5F
:100B2000002802DA3846BDE8F087280502D540469D
:100B3000FFF724FF4C212046FFF748FD206D20F0F1
:100B4000010020654846EEE710B50446AFF300808B
:100B50002046BDE81040FFF71DBB10B500F07EF940
:100B6000BDE8104000F074B900487047082D00201F
:100B70007047000000487047102D002070477047F4
:100B80007047704738B504460A4600206946AFF3FF
:100B90000080002808BF38BD02460099204600F0BA
:100BA00084F9012038BD012000F0D3B9F8B5AFF3C6
:100BB0000080054600200C46102000BF0646A819FC
:100BC000A0420DD9324669460020AFF300800700ED
:100BD00008BF00F0BEF90098A04218BF0546C4192E
:100BE000FFF7C8FF05600746F01D20F00700461913
:100BF000284600F053F9B44208BFF8BDA21B3146A5
:100C00003868BDE8F84000F050B970B50646FFF707
:100C1000B1FF056806F10B0020F00704B4429CBF49
:100C2000002070BD2B466A68BAB11068A04210D38C
:100C300004F1080188423CBF5068586007D35168EE
:100C4000101941601168091B016058601460101D83
:100C500070BD13465268002AE7D121462846FFF7A7
:100C600091FF0028DED170BD2DE9F0410446164603
:100C70000D464769007B80072ED03846FFF745FEBA
:100C800050BB3EB3012E02D0022E25D104E02046F7
:100C900000F025F905441DE03846FFF744FEE16801
:100CA000002841F01001E16005DA204600F058F814
:100CB0000120BDE8F081C9030BD56268E16A914269
:100CC00000D81146A26911442269891A814200DDC7
:100CD00008460544002D01DA0220EAE7E16A60686F
:100CE000E268814206D29103E06203D522F400312A
:100CF00041F01002A6690027AE4213DCE16A81428E
:100D000001D90B4600E0034603EB060C2369ACEB6C
:100D1000030CAC4506DD814201D98C4600E08446D7
:100D20009C4505D1A760276042F02000A5620DE038
:100D3000AD1BE669AE1B8142A66000D90846C01A09
:100D4000281A20605819606022F0200003490840EA
:100D5000E060002084F84870ABE70000BFCFD7FF09
:100D6000C16821F4001141F08001C160002181605F
:100D7000016070472DE9F047814614460E464FF05A
:100D8000FF383248D5685769054209D03846A1690D
:100D9000FFF7C1FD002811DB2C48C0430540E5608A
:100DA0002B46324649463846FFF7A0FDA16920F0A0
:100DB0000042B21A11440028A16103D02046FFF777
:100DC000CFFF4046BDE8F08770B504460569C06AAC
:100DD0006168884200D80846E16821F42011E1608A
:100DE000C90312D5A84208D02246411B2846FFF766
:100DF000C1FF10B14FF0FF3070BD0020E562C4E9C3
:100E00000150E06820F48030E060002070BD10B533
:100E10000446C06820F02000E060A16AA069884212
:100E20000DD02046FFF7D0FFE06820F4405040F09E
:100E30001000E060A06AA0612069E062606044F296
:100E40004001E0688843E06010BD0000100002002F
:100E5000002801D000F01CB87047000010B5014612
:100E600002A000F05DF8012010BD00005349475278
:100E7000545245443A2052656469726563743A205D
:100E800063616E2774206F70656E3A200000000069
:100E900001491820ABBEFEE72600020000210160D8
:100EA000C0E90110704710207047034640688C4627
:100EB000002818BF88423CBF03464068F8D3186832
:100EC0001844884207D00CF1030020F00700001DF1
:100ED000411A521A0146081D0A60FFF74FBD10B5AE
:100EE0000146C268900703D0900607D5886A0AE0D9
:100EF00000F03EF801210160881E10BD8B69486832
:100F000018440B69C01A91F848301BB191F8491088
:100F1000401A10BD1103FCD50028FADD401E10BD9B
:100F200070B505460C460A2000E06D1C00F018F86C
:100F300035B128780028F8D102E0641C00F010F8E0
:100F400014B120780028F8D1BDE870400A2000F0E4
:100F500007B810B500F010F8BDE81040FFF778BFF3
:100F600008B569468DF800000320ABBE08BD00003F
:100F700000487047082D002010B5012805D0002139
:100F800003A0FFF7CDFF012010BD09A1F8E7000085
:100F900053494752544D454D3A204F7574206F6662
:100FA0002068656170206D656D6F727900000000CA
:100FB0003A2048656170206D656D6F727920636FAE
:100FC00072727570746564002DE9F0410246002567
:100FD0000026002000230024002791F803C00CF015
:100FE0000F0591F803C00CF0100CBCF1000F03D0FA
:100FF00091F802C04CEA050591F800C0BCF1000F61
:1010000031D0146800202BE04FF0010C0CFA00F3F3
:10101000B1F800C00CEA03069E4220D183004FF0D5
:101020000F0C0CFA03F7BC4305FA03FC4CEA04046A
:1010300091F803C0BCF1280F06D14FF0010C0CFA57
:1010400000FCC2F814C00AE091F803C0BCF1480FDC
:1010500005D14FF0010C0CFA00FCC2F810C0401C86
:101060000828D1D31460B1F800C0BCF1FF0F34DD03
:10107000546800202EE000F1080C4FF0010808FA37
:101080000CF3B1F800C00CEA03069E4221D18300A4
:101090004FF00F0C0CFA03F7BC4305FA03FC4CEAC3
:1010A000040491F803C0BCF1280F05D100F1080C2D
:1010B00008FA0CF8C2F8148091F803C0BCF1480F8C
:1010C00007D100F1080C4FF0010808FA0CF8C2F83B
:1010D0001080401C0828CED35460BDE8F081024641
:1010E000002093680B400BB1012000E00020704706
:1010F000416170470161704708B50121042000F08B
:10110000A9F80121042000F0A5F88020ADF8000026
:1011100003208DF8020010208DF8030069460B486B
:10112000FFF752FF4FF48070ADF8000003208DF8F8
:10113000020010208DF8030069460448FFF744FFC1
:1011400000F006F800F028F808BD00000008014093
:1011500010B580210148FFF7CBFF10BD000801400A
:1011600010B580210148FFF7C5FF10BD0008014000
:1011700010B580210748FFF7B2FF012804D1802174
:101180000448FFF7B5FF03E080210248FFF7B2FFF4
:1011900010BD00000008014010B54FF480710248F6
:1011A000FFF7A6FF10BD00000008014010B54FF486
:1011B00080710248FFF79EFF10BD0000000801404B
:1011C00010B54FF480710848FFF789FF012804D15A
:1011D00001020548FFF78CFF04E04FF480710248DC
:1011E000FFF788FF10BD0000000801400FB408B5EC
:1011F0004FF0FF310F48006801F03EF900200E4922
:10120000A1F8C80003A8009069460298FFF734F8D7
:1012100000235A1E08490948006801F01FF80023FE
:101220001A4619460348006801F018F801B05DF845
:1012300014FB0000140000207800002010000020A3
:1012400002490143024A1160704700000000FA059C
:101250000CED00E029B1064A92690243044B9A6101
:1012600004E0034A92698243014B9A61704700008F
:101270000010024010B500F0F9F910BD2DE9F0475B
:10128000074688461646C24607EB47011B4800EB57
:10129000C109D9F8140020B1012811D0022826D1A3
:1012A0001EE0484600F01AFA0546B54201D2002475
:1012B00005E0344632465146484600F056FA18E0FA
:1012C000484600F00BFA0546B54201D2284600E038
:1012D0003046044622465146484600F046FA08E0A9
:1012E00032465146484600F007FA044601E0002421
:1012F00000BF00BF2046BDE8F0870000E8290020BD
:1013000010B500F001F810BD0CB500200190009060
:101310003348006840F480303149086000BF3048ED
:10132000006800F4003000900198401C0190009883
:1013300018B90198B0F5A06FF1D12948006800F400
:10134000003010B10120009001E0002000900098D2
:10135000012843D12348006840F01000214908606B
:101360000846006820F0030008600846006840F066
:10137000020008601A4840681949486008464068F9
:1013800048600846406840F480604860084640680D
:1013900020F47C1048600846406840F4E81048603B
:1013A0000846006840F08070086000BF0C48006884
:1013B00000F000700028F9D00948406820F00300D0
:1013C000074948600846406840F00200486000BF96
:1013D0000348406800F00C000828F9D10CBD00005B
:1013E000001002400020024010B51348006840F091
:1013F00001001149086008464068104908400E493C
:101400004860084600680E4908400B4908600846D5
:10141000006820F4802008600846406820F4FE0040
:1014200048604FF41F008860FFF76AFF4FF00060CC
:101430000449086010BD0000001002400000FFF8E1
:10144000FFFFF6FE08ED00E008B50446002000901E
:101450000027804600250026FFF74EFE00220421CB
:101460000A2000F0A0FE384908600846006808B964
:1014700000BFFEE72078401C207000BF012000F074
:1014800057FD20780228F9D100BF00BF2FA0FFF739
:10149000ADFE34A0FFF7AAFE38A0FFF7A7FE3DA0DF
:1014A000FFF7A4FE41A0FFF7A1FE46A0FFF79EFEB6
:1014B0004AA0FFF79BFE00BF022000F039FD00228A
:1014C00069462148006800F055FF01280ED19DF8BB
:1014D0000000012802D0022806D102E0BDF8025027
:1014E00003E0BDF8026000E000BF00BF1DB9FFF7D8
:1014F0002FFE00270EE04FF6FF70854203D1FFF765
:101500002FFE002706E0781C87B2AF4202DB0027DF
:10151000FFF72EFE26B9FFF73FFE4FF00008CBE79E
:101520004FF6FF70864204D1FFF740FE4FF00008EF
:10153000C2E708F101001FFA80F8B045BCDB4FF0AC
:101540000008FFF73DFEB7E70C0000203120546192
:10155000736B204C45442053746172742E2E2E20E0
:101560000D0A000032205461736B204C4544205317
:10157000746172742E2E2E200D0A000033205461E7
:10158000736B204C45442053746172742E2E2E20B0
:101590000D0A000034205461736B204C45442053E5
:1015A000746172742E2E2E200D0A000035205461B5
:1015B000736B204C45442053746172742E2E2E2080
:1015C0000D0A000036205461736B204C45442053B3
:1015D000746172742E2E2E200D0A00003720546183
:1015E000736B204C45442053746172742E2E2E2050
:1015F0000D0A0000B4B00446012000F0C3FD1949F3
:1016000008600846006808B900BFFEE70022CA214A
:10161000022000F0C8FD144908600846006808B9B7
:1016200000BFFEE7FFF726FE2078401C207000BFB9
:10163000012000F07DFC20780228F9D100BF00BF16
:1016400000BF4FF0FF3201A90748006800F092FE8A
:101650000128F6D1BDF8CC2001A90020FFF70EFE2D
:10166000EFE70000140000201000002010B5124C1D
:1016700001202061606111A0A0611349E1614FF474
:10168000C87121620021A1626162E1620BA0206346
:101690000E4961636421A16300212164E1636164F7
:1016A0000BA1E01DFEF70AFF0AA12046FEF706FF88
:1016B0002020A07110BD0000D02900205465726D5B
:1016C000696E616C00000000182A0020A82B002021
:1016D00052545400534547474552000010B5014647
:1016E0000A69CB689A4204D88C68641EE41AA01870
:1016F00001E0D41A601E10BD2DE9F047044689466A
:1017000017464FF0000AE56800BFD4F81080A845DE
:1017100003D9A8EB0500461E04E0A5EB0800401C19
:10172000A1680E1AA068401BB04201D9304601E002
:10173000A068401B0646BE4201D2304600E0384653
:1017400006466168481932464946FEF7FAFEB24439
:10175000B144BF1B3544A068A84200D10025E56014
:10176000002FD2D15046BDE8F0872DE9F04704465E
:1017700089461546E668A068871BAF4208D96168AC
:1017800088192A464946FEF7DCFE7019E06010E031
:10179000B8466168881942464946FEF7D2FEA5EB75
:1017A000070809EB070142466068FEF7CAFEC4F865
:1017B0000C80BDE8F08730380A2801D2012070473C
:1017C0000020704710B50A4BB3F8C830084CE054FD
:1017D0002246B2F8C820521C2346A3F8C8201A4655
:1017E000B2F8C820C82A02DBC722A3F8C82010BD5F
:1017F000780000201CB54FF44070FFF721FD114820
:101800000221114B8022CDE9001010A1114800F0F7
:10181000F9FE0446012C01D000BFFEE70E4801216D
:10182000094B4A02CDE900100CA10E4800F0EAFE77
:101830000446012C01D000BFFEE700F005FC0020AB
:101840001CBD000000000020080000205461736BE4
:101850004C45440049140008040000205461736B97
:101860004C6F6700F51500082DE9F04105460E465E
:101870001C4807681C480068001D00F0C1FA50B9F8
:101880001948006890F82C10012088401749096811
:10189000814316480160681C38B936B112480168A6
:1018A000091D134800F0EAFA1AE07C190E48006896
:1018B0004460BC4207D20C480168091D0D4800680D
:1018C00000F0C2FA0CE008480168091D0A480068E7
:1018D00000F0BAFA09480068844201D2074804605F
:1018E000BDE8F08128000020180000202C00002016
:1018F000BC010020200000201C000020440000202B
:1019000010B5044600F0C6FA23480068401C22497E
:1019100008602248006840B9204804600846006812
:1019200001280DD100F040F90AE01D48006838B9DF
:101930001A480068C06AE16A884201D81748046002
:1019400018480068401C1749086094F82C100120C2
:10195000884015490968084313490860E16A01EBAA
:101960008101124A02EB8100211D00F087FA00F08C
:10197000A3FA0B48006868B108480068C06AE16AC9
:10198000884207D24FF0805009490860BFF34F8F5B
:10199000BFF36F8F10BD000024000020180000204E
:1019A00030000020400000202C00002044010020D6
:1019B00004ED00E0704770B504460D46206C70B130
:1019C000216CE0680144E160D4E90210884201D34F
:1019D0002168E1602846226CE168FEF7B2FD70BD27
:1019E0002DE9F04104460F4615464FF00008A66B5E
:1019F000206C48B9206800282CD1A06800F0C0FEF7
:101A000080460020A06025E07DB93946226C6068E0
:101A1000FEF797FD216C606808446060D4E901011D
:101A2000884217D32068606014E03946226CE06871
:101A3000FEF787FD216CE068411AE1602168E068EB
:101A4000884203D2216CA068411AE160022D01D1C5
:101A500006B1761E701CA0634046BDE8F0810146C9
:101A60004A6A22B10A6B1268C2F1030000E000204A
:101A7000704700000A4A22F007000A4A106000225C
:101A8000084B5A6042F2F872074B5A6000221A6003
:101A9000014642F2F8724A601A460A607047000036
:101AA000D8010020500000205800002000BFFFF7A0
:101AB00081FF064800680128F9D94FF08050044999
:101AC0000860BFF34F8FBFF36F8FF0E74401002032
:101AD00004ED00E010B5044654B10020A060206081
:101AE0000021E16000231A461946204600F0B6FBAB
:101AF00010BD2DE9F04106460D4617469846069C56
:101B00000DB9246000E02760E663256401212046CA
:101B100000F064FBBDE8F0812DE9FF5F80460E46D2
:101B20009146DDE90E7A109CA9F10100216B01EBD1
:101B3000800B2BF0070B86B1002507E0715D04F1E7
:101B400034004155705D00B902E06D1C102DF5D3D5
:101B500000BF00214320015502E0002084F834003A
:101B6000032F00D30227E76267640020A064201DD2
:101B700000F067F904F1180000F063F92461C7F17F
:101B80000300A06164620020E06484F850004146D4
:101B90005846039A00F022F92060BAF1000F01D0F4
:101BA000CAF80040BDE8FF9F10B5002407E004EB31
:101BB00084010D4A02EB810000F036F9641C032C0D
:101BC000F5D30A4800F030F9094800F02DF909482A
:101BD00000F02AF9084800F027F90448074908608E
:101BE00003480749086010BD44010020800100201F
:101BF00094010020A8010020BC0100201C0000204E
:101C00002000002070B5054600F044F9A86B08B923
:101C1000012400E0002400F04FF9204670BD70B5AB
:101C2000054600F037F9A86BE96B884201D1012421
:101C300000E0002400F040F9204670BD0A49096820
:101C4000096809B9012100E0002121B14FF0FF31FD
:101C5000064A116006E004490968C968C868034A71
:101C600041681160704700001C0000204400002003
:101C700000BFBF2080F31188BFF34F8FBFF36F8F7A
:101C800000BF00BFFEE770B5044600F003F994F909
:101C9000455010E0606A08B9012000E0002038B922
:101CA00004F1240000F00AFE18B100F067F900E02A
:101CB00003E0681E45B2002DECDC00BFFF2084F875
:101CC000450000F0F9F800F0E5F894F9445010E010
:101CD000206908B9012000E0002048B904F1100093
:101CE00000F0ECFD08B100F049F9681E45B200E0D3
:101CF00001E0002DECDC00BFFF2084F8440000F080
:101D0000DBF870BD2DE9F04104464FF0000800F00B
:101D1000CDF92648006820B9FFF7ACFE0120234921
:101D2000086044B1083404F0070020B104F0070053
:101D3000C0F108000444002C32D042F2F870844212
:101D40002ED21B4F3846056801E02F462D68686883
:101D5000A04202D228680028F7D1164885421FD039
:101D6000386800F10808286838606868001B102887
:101D700010D92E196868001B70606C6071680C487F
:101D800000E00068026852688A42FAD30268326052
:101D9000066000BF084968680968081A06490860B3
:101DA00000F0CCFD4046BDE8F0810000640000205A
:101DB0005000002058000020600000200648006805
:101DC00030B10549096801F14800896C491C01607E
:101DD000014800687047000018000020001F4FF005
:101DE00080730360001F21F001030360001F034B99
:101DF000036014380260203870470000711C00082E
:101E000001460A69D1E901309860D1E901035860BF
:101E10005068884201D188685060002008611068CD
:101E2000401E10601068704700F1080141604FF0DB
:101E3000FF31816000F10801C16001610021016092
:101E4000704700210161704710B502460B685C1CA9
:101E50000CB9106907E002F1080000E0406844682E
:101E600024689C42FAD944684C604C68A160886040
:101E700041600A611468641C146010BD42684A60C5
:101E800093688B60936859609160086103685B1C7C
:101E90000360704700BFBF2080F31188BFF34F8FEE
:101EA000BFF36F8F00BF03480068401C0149086002
:101EB000704700006800002006480068401E054981
:101EC00008600846006820B9002080F3118800BF30
:101ED00000BF70476800002070B506463546B6B1B1
:101EE000083D2C4600F0E2F86168094800E000680F
:101EF000026852688A42FAD3026822600460054987
:101F00006068096808440349086000F017FD70BD67
:101F1000500000206000002000204FF0E021086108
:101F20008861024848610720086170473F19010035
:101F300070B50446002544B100F0B8F800212046F1
:101F4000FFF792FC00F0FAFC05463DB94FF08050D7
:101F500003490860BFF34F8FBFF36F8F70BD000060
:101F600004ED00E003490968016003490968416024
:101F7000704700003C00002028000020012001499B
:101F8000086070473800002070B505460C460548CB
:101F9000016818312846FFF757FF01212046FFF757
:101FA00063FC70BD180000202DE9F04706460F467F
:101FB00034464FF00109002E40D0606CB84201D287
:101FC0003D4600E0656CE06AA84237D0A06C01286D
:101FD00034D1D4F82C80E562A06900F0004010B93B
:101FE000C5F10300A06108EB8801154A02EB8101ED
:101FF0006069884201D1012000E00020F0B1201D7D
:10200000FFF7FEFE40B994F82C10012088400D49DE
:10201000096881430B48016094F82C100120884026
:1020200008490968084307490860E16A01EB810132
:10203000034A02EB8100211DFFF720FFBDE8F08776
:10204000440100202C0000201CB5114800210B4643
:102050008022CDE900100FA1104800F0D3FA044609
:10206000012C14D100BFBF2080F31188BFF34F8F24
:10207000BFF36F8F00BF4FF0FF30094908600120A8
:102080000849086000200849086000F047F81CBDB6
:102090004800002049444C4500000000AD1A0008EB
:1020A0004400002030000020280000200248006882
:1020B000401C0149086070474C000020124800682D
:1020C00018B10120114908601DE000200F49086087
:1020D0000F480068B0FA80F0C0F11F0101EB8102E7
:1020E0000C4B03EB820042685268426000F1080228
:1020F0004368934202D14268526842604268D268A3
:10210000054B1A6000BF70474C00002038000020CB
:102110002C000020440100201800002010B50A48BF
:10212000006840F47F00084908600846006840F0F5
:102130007F400860FFF7F0FE002004490860FEF7CA
:1021400041F8002010BD000020ED00E068000020F4
:1021500010B500BFBF2080F31188BFF34F8FBFF3CE
:102160006F8F00BF00F07EFA18B14FF08050044925
:10217000086000BF002080F3118800BF10BD000080
:1021800004ED00E02DE9F041044601260027224637
:102190000021012000F007F805462846FFF79AFCC9
:1021A0002846BDE8F0812DE9F84305460E4617465E
:1021B00005FB06F909F14800FFF7A4FD04464CB100
:1021C000A04608F148083B4642463146284600945E
:1021D000FFF78FFC2046BDE8F883000070B5054688
:1021E0000E462C46FFF756FED4E90F12206801FB7D
:1021F0000200A0600020A06320686060E06B401EC9
:10220000226C216800FB0211E160FF2084F8440089
:1022100084F845009EB9206908B9012000E000203B
:10222000A8B904F1100000F049FB80B14FF08050D4
:1022300009490860BFF34F8FBFF36F8F07E004F1C8
:102240001000FFF7F1FD04F12400FFF7EDFDFFF7AB
:1022500033FE012070BD000004ED00E02DE9FF43D6
:1022600083B0074688461D464FF000093C4600BF34
:10227000FFF710FEA06BE16B884201D3022D28D13D
:102280002A4641462046FFF7ABFB0646606A08B97E
:10229000012000E0002068B904F1240000F00EFBEA
:1022A00088B14FF0805032490860BFF34F8FBFF3C1
:1022B0006F8F08E03EB14FF080502D490860BFF3AA
:1022C0004F8FBFF36F8FFFF7F7FD012007B0BDE819
:1022D000F083059818B9FFF7EFFD0020F6E7B9F194
:1022E000000F04D101A8FFF73DFE4FF00109FFF7F1
:1022F000E3FDFFF7DBFEFFF7CDFD94F94400401C42
:1023000010B9002084F8440094F94500401C10B92D
:10231000002084F84500FFF7CFFD05A901A800F0D3
:1023200043F9F0B92046FFF77AFCA0B104F11000A0
:102330000599FFF729FE2046FFF7A5FC00F0FEFAFD
:10234000002895D14FF0805009490860BFF34F8FA6
:10235000BFF36F8F8CE72046FFF795FC00F0EEFA95
:1023600086E72046FFF78FFC00F0E8FA0020ADE793
:1023700004ED00E02DE9F74183B005460F464FF02C
:1023800000082C4600BFFFF785FDA66BF6B1394665
:102390002046FFF710FB701EA063206908B90120DA
:1023A00000E0002060B904F1100000F087FA38B1B5
:1023B0004FF080502F490860BFF34F8FBFF36F8FEE
:1023C000FFF77AFD012006B0BDE8F081059818B945
:1023D000FFF772FD0020F6E7B8F1000F04D101A865
:1023E000FFF7C0FD4FF00108FFF766FDFFF75EFE47
:1023F000FFF750FD94F94400401C10B9002084F808
:10240000440094F94500401C10B9002084F84500B0
:10241000FFF752FD05A901A800F0C6F8F0B9204663
:10242000FFF7F0FBA0B104F124000599FFF7ACFD24
:102430002046FFF728FC00F081FA0028A3D14FF0D6
:1024400080500C490860BFF34F8FBFF36F8F9AE73E
:102450002046FFF718FC00F071FA94E72046FFF7DA
:1024600012FC00F06BFA2046FFF7CCFB00288AD064
:102470000020A8E704ED00E02DE9F34182B0054615
:1024800000272C46B84600BFFFF704FDA66BFEB13F
:10249000701EA063206810B9FFF790FCA06020694F
:1024A00008B9012000E0002060B904F1100000F03C
:1024B00005FA38B14FF080503A490860BFF34F8FAA
:1024C000BFF36F8FFFF7F8FC012004B0BDE8F08187
:1024D000039818B9FFF7F0FC0020F6E71FB968462B
:1024E000FFF740FD0127FFF7E7FCFFF7DFFDFFF7F0
:1024F000D1FC94F94400401C10B9002084F8440039
:1025000094F94500401C10B9002084F84500FFF7FD
:10251000D3FC03A9684600F047F840BB2046FFF70C
:1025200071FBF0B1206838B9FFF7B4FCA06800F087
:1025300069F98046FFF7C0FC04F124000399FFF716
:1025400023FD2046FFF79FFB00F0F8F900289BD100
:102550004FF0805013490860BFF34F8FBFF36F8F68
:1025600092E72046FFF78FFB00F0E8F98CE7204662
:10257000FFF789FB00F0E2F92046FFF743FB002854
:1025800082D0B8F1000F0BD0FFF784FC2046FFF794
:1025900066FA06463146A068FFF706FDFFF78CFC99
:1025A000002092E704ED00E070B506460C46FFF708
:1025B00071FC124802687068131A2068401C08B940
:1025C000002517E00E4930680968884204D0706819
:1025D000904201D801250DE02068984207D9206873
:1025E000C01A20603046FFF7BDFC002502E0002045
:1025F00020600125FFF760FC284670BD2800002000
:102600003C0000202DE9FF4F85B0804689461746E3
:10261000DDE912ABB800FFF775FB064656B1542052
:10262000FFF770FB04460CB1266304E03046FFF769
:1026300053FC00E000247CB10020CDE900ABCDE9E3
:1026400002403A4649464046089BFFF765FA204655
:10265000FFF756F9012501E04FF0FF35284609B094
:10266000BDE8F08F2DE9F04100273A4800680028C6
:1026700067D139480068451C374805608DB937482F
:10268000D0F8008036480068344908603448C0F803
:10269000008034480068401C32490860FFF7CEFAD9
:1026A00000BF3148006885423BD300BF2B4800681B
:1026B000006808B9012000E0002020B14FF0FF3091
:1026C000294908602CE025480068C068C46866682D
:1026D000B54202D22448066022E0201DFFF790FB9D
:1026E000A06A18B104F11800FFF78AFB94F82C10C7
:1026F000012088401D49096808431C490860E16AB7
:1027000001EB81011A4A02EB8100211DFFF7B6FBA4
:102710001849E06A0968C96A8842C7D30127C5E732
:1027200000BF14480068C06A00EB8000104951F8EF
:102730002000012800D901270F48006800B10127B7
:1027400004E00E480068401C0C4908603846BDE8AB
:10275000F08100004C000020280000201C00002018
:10276000200000203C000020440000202C0000201D
:102770004401002018000020380000203400002010
:1027800070B505462C460026ADB3A06C401EA06473
:10279000616CE06A88422ED0A06C60BB201DFFF700
:1027A0002FFB78B9E06A00EB8000144951F8200053
:1027B00040B994F82C1001208840114909688143E0
:1027C0000F480160606CE062E06AC0F10300A06144
:1027D00094F82C10012088400949096808430849E9
:1027E0000860E16A01EB8101044A02EB8100211DCE
:1027F000FFF744FB0126304670BD00004401002075
:102800002C00002070B505462C460026002D4DD02A
:102810002749E06A0968C96A884240D2A06900F085
:10282000004028B922480068C06AC0F10300A061D6
:10283000E16A01EB81011F4A02EB81016069884274
:1028400001D1012000E0002018B3201DFFF7D8FAC5
:1028500040B994F82C100120884017490968814339
:102860001548016012480068C06AE06294F82C10B4
:10287000012088401049096808430F490860E16A4F
:1028800001EB81010B4A02EB8100211DFFF7F6FAF3
:1028900003E007480068C06AE062012606E00449D8
:1028A000606C0968C96A884200D20126304670BD52
:1028B00018000020440100202C00002070B50646BE
:1028C000F068C46804F11800FFF79AFA1548006828
:1028D000A8B9201DFFF794FA94F82C100120884025
:1028E00011490968084310490860E16A01EB810158
:1028F0000E4A02EB8100211DFFF7C0FA04E004F14B
:1029000018010B48FFF7BAFA0A49E06A0968C96A70
:10291000884204D9012501200749086000E000250C
:10292000284670BD4C0000202C00002044010020EF
:10293000A8010020180000203800002070B50024F5
:102940000026FFF7A7FA2E480068401E2C490860B1
:102950000846006800284FD12A48006800284BD05C
:1029600024E02948C068C46804F11800FFF748FA59
:10297000201DFFF745FA94F82C10012088402349C8
:102980000968084321490860E16A01EB8101204A96
:1029900002EB8100211DFFF771FA1E49E06A096808
:1029A000C96A884202D301201B49086016480068A2
:1029B00008B9012000E000200028D2D00CB1FFF7B8
:1029C0003DF91648056865B100BFFFF74BFE10B131
:1029D0000120114908606D1E002DF6D100200F491D
:1029E00008600D48006838B1012630070C490860BE
:1029F000BFF34F8FBFF36F8FFFF75EFA304670BDA6
:102A00004C00002024000020A80100202C00002001
:102A1000440100201800002038000020340000206D
:102A200004ED00E030313233343536373839414245
:102A30004344454640305800303132333435363720
:102A400038396162636465664030780004000008CC
:102A5000000000000000000200010000103A747441
:102A6000003A7474003A7474000000008C2A000864
:102A7000000000207800000028010008042B000856
:102A800078000020F034000044010008000000003D
:102A90000000000000000000000000000000000036
:102AA0000000000000000000000000000000000026
:102AB0000000000000000000000000000000000016
:102AC0000000000000000000000000000000000006
:102AD00000000000000000000000000000000000F6
:102AE000000000000000000000000000F8270000C7
:102AF00000000000AAAAAAAA00000000000000002E
:042B000000000000D1
:04000005080000ED02
:00000001FF
